:1000000010308A00002800000A108A100A118207A6
:1000100028340C34013406340A108A100A1182077D
:100020003134323433344134343435343634423478
:1000300037343834393443342A3430342334443474
:100040000C00C3274E2AD2274C10D0244410C827B6
:1000500052274F00D332F416D03769377410201D61
:10006000A01233173133A02120102000D4326D3874
:100070006539613A7539611DA01233173133A021FA
:100080000001CC327910C3376E3AF2376C1DA012E2
:100090006C3220102000D232E632F232EE31E930FA
:1000A0002818AD193018291D000179107039E5396B
:1000B000E937EE322015000153283A1020102010A5
:1000C00020102010201020102010201020102010B0
:1000D000000153283A10A519AE1866102010201000
:1000E0002010201000010C00BF3084008313000892
:1000F000031988280130F800F701F70B7D28F80B69
:100100007C284A30F700F70B83288628800B7A2852
:1001100008008316450EF039F7000F3083120805EA
:10012000770488000000081495280810080088103B
:10013000F0308316880083120815000008140000B0
:100140000808080E0F398316C50083120810000036
:10015000081400000808080E0F398316C400831223
:100160000810003083168800450EF700F030F705C0
:1001700077084404F8007808C400C41FC12883121B
:1001800098284218C628831288108316421CCB2850
:1001900083128814831600008312081100000810CF
:1001A0008316430EC4000F30C4054408C5008312F3
:1001B0008920831643080F39C400C50083128920A3
:1001C0000800003083168800831288100811081078
:1001D0000F308316BF008312742001308316AD00E8
:1001E0002D08033C031C00290330C500831289201D
:1001F00005308316BF00831274208316AD0AF028E1
:100200000230C500831289208316AD012D08033CFE
:10021000031C17292D08831204208316AE00C20187
:100220002E08C300831297208316AD0A0629831275
:100230008A110A169328013083164002FC3E0318E7
:100240003529043E83123E2980308316C1003529AA
:10025000C0308316C100352994308316C10035297A
:10026000D4308316C1003529831601303F02C107FF
:10027000C2014108C3008312972008000A148A10A3
:100280000A118207242928292C29302983163E089F
:100290000C3A831203195329063A03196129023AC9
:1002A00003196C2973298316C2010130C30083121C
:1002B00097200130A00002308316BF008312742003
:1002C0007A29A00A01308316BF0083122008831602
:1002D000C00083121B217A298316C2011030C3008B
:1002E000831297207A2901308316C2003E08C3008A
:1002F0008312972008000B088316AD0083128B131E
:10030000831603178C170C14000000000313AD1F95
:100310008C2983128B178316831203170C087F39DD
:100320000319ED2983160313AD00831203170D087B
:1003300083160313AE00831203170F0883160313EB
:10034000AF002D08BE008312462183162E088312AB
:1003500003178D00831603132F08831203178F00D2
:1003600003130B088316B00083128B138316031735
:100370008C170C14000000000313B01FC229831255
:100380008B178316831203170C0D0E0D7F3903197B
:10039000ED2983160313AD00831203170D0883168E
:1003A0000313AE00831203170F0883160313AF0065
:1003B0002D08BE008312462183162E0883120317D0
:1003C0008D00831603132F08831203178F008D0AE5
:1003D00003198F0A03137B290317031308008316DD
:1003E00039080319B52AC5003D080319B52AC50205
:1003F000031CFF297F30C5070318B52A052A813061
:10040000C502031CB52A0319B52A4508F700F801EF
:10041000F901FA01C4013A08C300C3173B08C2003E
:100420003C08C1001930C5004008C1020318282A41
:100430000130C2020318282AC3020318282AC40262
:100440000318282AC40AC30AC20A4008C1075A2A44
:100450003F08C2020318432A0130C3020318432A8B
:10046000C4020318432AC40AC30A3F08C20740084B
:10047000C107031C5A2AC20A031D5A2AC30A031DB4
:100480005A2AC40A5A2A3E088038C3020318592A35
:100490000130C4020318592AC40A3E088038C30731
:1004A0003F08C207031C372AC30A031D372AC40AA0
:1004B000372A7A14C50B5D2A682A0310C10DC20DB4
:1004C000C30DC40D0310FA0DF90DF80DC60D142A55
:1004D000461C702A0310F80CF90CFA0CC60C732A8F
:1004E000F7030319B52AC61B9C2A0310C10DC20DC0
:1004F000C30DC40D4008C1020318882A0130C2028E
:100500000318882AC3020318882AC402031CAB2AD2
:100510003F08C2020318932A0130C3020318932A2A
:10052000C402031CAB2A3E088038C30203189C2A6D
:100530000130C402031CAB2AFA0A031DAB2AF90AD4
:10054000031DAB2AF80A031DAB2AF70A0319B52AC3
:10055000F80CF90CFA0C3A08C5003E08C506C51F90
:10056000B32AF817B92AF813B92AF701F801F901E3
:10057000FA018312080083163E0803192C2BC600CB
:10058000420803192C2BC6070318CD2A7F30C60258
:10059000031C2C2B03192C2BD12A8130C6070318DE
:1005A0002C2B4608F700F801F901FA013F08CA00B0
:1005B000CA174008C9004108C8001830C600C70162
:1005C000481CFA2A4508FA07031CEC2AF90A031DFD
:1005D000EC2AF80A0319C7174408F907031CF32A81
:1005E000F80A0319C7174308C000C0174008F807E6
:1005F0000318C717C70DF80CF90CFA0CCA0CC90C74
:10060000C80C0310C60BDF2A0130F70703182C2B88
:10061000F81B112BCA0DFA0DF90DF80DF70303198C
:100620002C2BCA1F222BFA0A031D222BF90A031DA9
:10063000222BF80A031D222BF80CF90CFA0CF70AEE
:1006400003192C2B3F08C7004308C706C71F2A2BD6
:10065000F817302BF813302BF701F801F901FA01E4
:10066000831208008030831C382B8316BA0683124D
:100670008316BF01C0013608BE003A08BE06350821
:100680000319262CBD00F700390803192F2CBD02D1
:100690000319CB2B031C892B3A08C300C3173B0853
:1006A000C2003C08C100C0010310C30CC20CC10C45
:1006B000C00CBD0B532BBE1F602B3F14432C3F10AF
:1006C0003D103F16B83084008313582C3F12BE1BD8
:1006D000732B3D1C7E2BC30CC20CC10CC00CF70A43
:1006E00003193E2C7E2BC31B812B0310C00DC10DA3
:1006F000C20DC30DF70303193E2C732B3F17EB2BD1
:100700003F133608BE00BE1F872BC317372CC313F9
:10071000372C3908BD00F7003508BD023608C30084
:10072000C3173708C2003808C100C0010310C30C4A
:10073000C20CC10CC00CBD0B952BBE1FA22BBF144D
:10074000432CBF103D10BF16BC3084008313582CBF
:10075000BF12BE1BB52B3D1CC02BC30CC20CC10C61
:10076000C00CF70A03193E2CC02BC31BC32B03106C
:10077000C00DC10DC20DC30DF70303193E2CB52BDF
:10078000BF17EB2BBF133A08BE00BE1FC92BC31700
:10079000372CC313372C3A08C300C3173B08C200D9
:1007A0003C08C100BE1FD82BC3133F15432C3F117B
:1007B000C0013D10B83084008313582CBE1B012C9F
:1007C0003608BE003D1CEB2BC30CC20CC10CC00C88
:1007D000F70A03193E2CC01FFC2BC10A031DFC2B7A
:1007E000C20A031DFC2BC30A031DFC2BC30CC20C45
:1007F000C10CF70A03193E2C3F1B802BBF1BC22BD9
:10080000202C8030C306C31F092C432C3A08BE009D
:10081000162C3608BE00C308031D162CC208031D83
:10082000162CC108031D162CF701372CC31B202CD6
:100830000310C00DC10DC20DC30DF70B162C3E2CBD
:10084000BE1F242CC317372CC313372C3908F700CD
:100850003A08C3003B08C2003C08C100372C3508E9
:10086000F7003608C3003708C2003808C100430843
:10087000F8004208F9004108FA00762CF701F80167
:10088000F901FA01762CC001C109C209C309C009E6
:10089000C00A031D512CC10A031D512CC20A0319A1
:1008A000C30A3F185F2BBF18A12B3F19D72B062C6B
:1008B0000008C107031C622CC20A031D622CC30A74
:1008C00003193D1484030008C207031C6A2CC30AE1
:1008D00003193D1484030008801F803AC3070318DE
:1008E0003D143F1A662BBF1AA82BDE2B831208007B
:1008F0008E30F70083162E08F8002D08F900FA0153
:10090000F808031D8D2C7908F800F9010830F7026A
:10091000F808031D8D2CF701952C0310F81B942C5F
:10092000F90DF80DF7038D2CF813831208008316C8
:100930002E08B5003208B506B51FA32C031103100D
:10094000AE1B0314D62C2E08B5003108B6002D08B6
:10095000B6020319B12CB51FD62C0308013A830047
:10096000D62C3208B6002E08B6020319BD2CB51FCE
:10097000D62C0308013A8300D62C3308B6002F0882
:10098000B6020319C92CB51FD62C0308013A8300FF
:10099000D62C3408B6003008B6020319D52CB51F82
:1009A000D62C0308013A8300D62C031083120800CA
:1009B000831432088316B800831231088316B700F7
:1009C000831230088316B60083122F088316B500F1
:1009D000831236088316BC00831235088316BB00C9
:1009E000831234088316BA00831233088316B900C1
:1009F000831232238316C101C001BF017F30BE00C4
:100A00007A08C5007908C4007808C3007708C200D6
:100A10008312BB227A08BA007908B9007808B800B6
:100A20007708B7005E088316C10083125D0883163D
:100A3000C00083125C088316BF0083125B08831614
:100A4000BE0083123A088316C50083123908831644
:100A5000C400831238088316C30083123708831634
:100A6000C2008312BB2283104A088316B800831287
:100A700049088316B700831248088316B60083120C
:100A800047088316B5007A08BC007908BB007808CF
:100A9000BA007708B900831232237A088316B000AF
:100AA0007908AF007808AE007708AD0083126208BD
:100AB0008316C100831261088316C0008312600888
:100AC0008316BF0083125F088316BE0083123E08A0
:100AD0008316C50083123D088316C40083123C08A8
:100AE0008316C30083123B088316C2008312BB2205
:100AF000831083163008B8002F08B7002E08B60000
:100B00002D08B5007A08BC007908BB007808BA0047
:100B10007708B900831232237A088316B000790867
:100B2000AF007808AE007708AD0083126608831620
:100B3000C100831265088316C000831264088316FF
:100B4000BF00831263088316BE0083124208831617
:100B5000C500831241088316C4008312400883161F
:100B6000C30083123F088316C2008312BB22831086
:100B700083163008B8002F08B7002E08B6002D08DD
:100B8000B5007A08BC007908BB007808BA0077087D
:100B9000B900831232237A08C6007908C5007808A4
:100BA000C4007708C3008316B0014030AF001C308A
:100BB000AE008B30AD00831246088316B40083125A
:100BC00045088316B300831244088316B2008312CB
:100BD00043088316B100831297240318F12D031DD7
:100BE000F82DC6014030C5001C30C4008B30C30056
:100BF00046088316B000831245088316AF0083129F
:100C000044088316AE00831243088316AD00B40176
:100C1000B301B201B101831297240318112E031DF1
:100C2000152EC601C501C401C30146088316BC00C8
:100C3000831245088316BB00831244088316BA004A
:100C4000831243088316B900C001BF012030BE00E3
:100C50008130BD008312EF217A088316B000790835
:100C6000AF007808AE007708AD008E30F7002D0891
:100C7000F7022E08F9002F08F800F917F7080319F2
:100C80004C2E0310F908031D482EF80803194C2EAA
:100C9000F90CF80CF70B412EAE1F532EF809F90989
:100CA000F80A0319F90A79088312AE007808AD0032
:100CB0003E08C2003D08C1003C08C0003B08BF0020
:100CC0003A08BE003908BD003808BC003708BB0030
:100CD0004608CA004508C9004408C8004308C700C0
:100CE0002E08F9002D08F800F90CF80CF90CF80C96
:100CF000F90C78089500F90C790C3039F7001708D1
:100D0000CF39770497008A110A16DC2B0B0883165B
:100D1000B20083128B13831603178C170C14000078
:100D200000000313B21F972E83128B17831603182C
:100D3000D02E831203170C087F3983160313B200D9
:100D4000831203170D0883160313B30083120317CE
:100D50000F0883160313B4003208BE008312462125
:100D600083163308831203178D0083160313340888
:100D7000831203178F0003130B088316B500831229
:100D80008B13831603178C170C1400000000031339
:100D9000B51FCD2E83128B178316B10BD02EFE2ECE
:100DA000831203170C0D0E0D7F3983160313B20047
:100DB000831203170D0883160313B300831203175E
:100DC0000F0883160313B4003208BE0083124621B5
:100DD00083163308831203178D0083160313340818
:100DE000831203178F008D0A03198F0A03108316CD
:100DF0000313B10BFC2EFE2E8312862E83120800E5
:100E00008318052FC63084008313F701F801F90118
:100E1000FA018316C601C701C801C9014508440487
:100E2000430442040319442F2030CA000310BE0DAE
:100E3000BF0DC00DC10DC60DC70DC80DC90D4508AC
:100E40004902031D2D2F44084802031D2D2F43087E
:100E50004702031D2D2F42084602031C3E2F420865
:100E6000C6024308031C430FC7024408031C440F77
:100E7000C8024508031C450FC9020314F70DF80DFD
:100E8000F90DFA0DCA0B162F46088000840A470890
:100E90008000840A48088000840A49088000831280
:100EA00008008316B5010408B4003510831B3514FF
:100EB000AE1F622FB417341EB40AAD09AE09AD0AD5
:100EC0000319AE0A2E0EF038B000B007E23EB100B2
:100ED000323EB3002E080F39B107B107B307E93E20
:100EE000B200B207B2072D0E0F39B207B307B20D29
:100EF000B30DB309B30D2D080F39B307B00D07308B
:100F0000AF000A30B307B203031C822FB207B1034C
:100F1000031C862FB107B003031C8A2FB007AF0351
:100F2000031C8E2FAF308400831307303405341335
:100F300084033405031DA32F341A840A341AA32F03
:100F40002030F700C02F8407B33004020319341790
:100F50000008F700031DB42F341BB42F341AD02F10
:100F6000B419B42F2030BF2FB41FBC2F2D30F70081
:100F700084033413B413C02FB41534123030F70780
:100F8000AE010408AD002E10831B2E147708BE009E
:100F90008312462183162D08840083132E1883178D
:0E0FA000840A341FA42F83128A110A16CF2C44
:1010000004088316B6003508B800031924283408EC
:10101000C1003308C0003208BF003108BE00C5015E
:10102000C4012030C3008230C2008A118312BB2267
:101030008A157A088316B4007908B3007808B200DC
:101040007708B100B80B07283408C1003308C00086
:101050003208BF003108BE003E08B63CBE00FA01AF
:101060003F08C200BF170310BF0CC00CC10CFA0C24
:10107000F90CF80CF70CBE0B3328C21F4A28F709ED
:10108000F809F909FA09F70A0319F80A0319F90A1C
:101090000319FA0A7A08B4007908B3007808B20094
:1010A0007708B100B41F6128B603B616B109B209BA
:1010B000B309B409B10A0319B20A0319B30A03192F
:1010C000B40A3B30BD009A30BC00CA30BB00BA0144
:1010D0000A30B80035080319B60A8314B130840009
:1010E00083133408C1003308C0003208BF00310840
:1010F000BE003D08C5003C08C4003B08C3003A08D8
:10110000C2008A11831200278A157808F708031D88
:10111000A0288316350A3802031D90288312A028C0
:1011200036080319A3280F39380203199928031820
:10113000E328B61BE328361BA3282030DB288312C4
:1011400020308316B605B61EB528B6123508031D25
:10115000B6037708B6002D30BE008A1183124621EF
:101160008A1583163608F700B60135083802031DC4
:10117000C7287708B6002E30BE008A118312462198
:101180008A1583163608F7002030B6050030303057
:10119000B61EDB28B6123508031DB6037708B60065
:1011A0002D30BE008A11831246218A158316360817
:1011B000F700B6013030F7077708BE008A118312B6
:1011C00046218A15831683103D08C1003C08C000E3
:1011D0003B08BF003A08BE00C501C401C3010A3084
:1011E000C2008A11831200278A157A088316BD006F
:1011F0007908BC007808BB007708BA00B80B6D28E6
:10120000831208008316B7018312A10A2108213C2A
:10121000031872292408FC3E03182729043E792963
:10122000EF3083168600831286002729DF3083166D
:101230008600831286002729BF308316860083121A
:10124000860027297F308316860083128600221CA1
:10125000352906080F390F3C031D342922102308B5
:101260008316B7008312A301712906080F390F3CBA
:1012700003196C2906080139031D42298316B80198
:101280005B29831206080239031D4B29013083169E
:10129000B8005B29831206080439031D5429023063
:1012A0008316B8005B29831206080839031D5C29E0
:1012B00003308316B80083128316380DF700F70D3C
:1012C000FC30F7057708831224078A110C208A1551
:1012D000F800A30022147129A40A2408043C03196D
:1012E000A401A101FF30831686003708F80083129D
:1012F00008000A148A100A118207102916291C29CD
:1013000022298316AD01AF01AE01831202217808B4
:101310008316AD00AD08031DA129AE0A0319AF0A5B
:10132000AF08031DA1292E08633C031CA12903302B
:10133000F700F70B99298312022178088316AD0074
:101340008A292D08F80083128A110A16E82C3030F9
:101350008316B100B0012D0830020318DC29831276
:10136000022178088316B600B6080319AF2936089B
:10137000F8007808A80028082A3C0319D829053065
:101380003007B600BF000430C0008A1183121B2151
:101390008A1583162808BE008A11831246218A15F1
:1013A000B130831630078400831328088000DA29BF
:1013B0002D08B000B00AAB29B701B130B600BC01AE
:1013C000BA010A30BB00B901B80136083704031D61
:1013D000ED290030F800F900162B3C08BC0A36074E
:1013E00084008313371883170008BD003D082D3C87
:1013F000031D062A0130BA003C08BC0A36078400E7
:101400008313371883170008BD00132A3D082B3CAF
:10141000031D132A3C08BC0A3607840083133718BF
:1014200083170008BD003D082F3C0318072B3D081B
:10143000393C031C072B3D08303C031D3F2A3C0868
:10144000360784008313371883170008783C031984
:10145000332A3C08360784008313371883170008A3
:10146000583C031D3F2A1030BB00BC0A3C08BC0A94
:10147000360784008313371883170008BD003B0824
:101480000A3C031D962A3D082F3C0318952A3D0867
:10149000393C031C952ABF010A30BE003908C1003F
:1014A0003808C0003F0841068039C300BF1F5D2ACD
:1014B000BE09BF09BE0A0319BF0AC11F642AC009B9
:1014C000C109C00A0319C10A1030C200F701FA01AC
:1014D000BF0CBE0C031C722A4008F7070318FA0A57
:1014E0004108FA07FA0CF70CF90CF80CC20B682A41
:1014F000C31F7F2AF809F909F80A0319F90A7908BC
:10150000BF007808BE0030303D023E07B8003F08FB
:10151000B9000318B90A3C08BC0A360784008313D3
:10152000371883170008BD00432A072B3B08103CDF
:10153000031D072B3D08603C0318A52A3D087A3C93
:10154000031CA52A3D08DF39A62A3D08BD003D0839
:101550002F3C0318AF2A3D08393C0318B72A3D0831
:10156000403C0318072B3D08463C031C072B3D0855
:101570002F3C0318D82A3D08393C031CD82A380DC3
:10158000BE00390DBF00BE0DBF0DBE0DBF0DBE0D9F
:10159000BF0DF030BE0530303D023E07F8003F0879
:1015A000FA000318FA0A7808B8007A08B900F12A94
:1015B000380DBE00390DBF00BE0DBF0DBE0DBF0DF5
:1015C000BE0DBF0DF030BE0541303D020A3E3E0764
:1015D000F8003F08FA000318FA0A7808B8007A08F9
:1015E000B9003C08BC0A36078400831337188317F8
:1015F0000008BD00603C0318042B3D087A3C031C26
:10160000042B3D08DF39052B3D08BD00A72A3B0808
:101610000A3C031D122B3A0B122BB809B909B80A60
:101620000319B90A3808F8003908F9007908AF0039
:101630007808AE002E08F8002F08F90083128A11EE
:041640000A162D2D2C
:1020000003081F398300AE01AD01B2018030B10079
:102010003B30B0008930AF00B601B501B401B30167
:10202000BA01B901B801B701BE01BD01BC01BB01D4
:10203000C201C101C001BF01C601C501C401C30184
:10204000CA01C901C801C701CD30CE00CC30CD00D6
:102050004C30CC007B30CB00C330EA00F530E900D7
:102060000830E8007E30E700EE01ED012030EC00A2
:102070008230EB00F201F101F0017F30EF008316B6
:10208000A901FF30AA00AC01AB0103170908C03950
:10209000890003131F129F12003003178800831258
:1020A00087018801890183130313A1012210A30171
:1020B000A401A501A601FF3083169500811300300D
:1020C0008700AA008800F800053883129200F930D2
:1020D000831692002A112A088700831207110C30F8
:1020E000970083169B019C0101309D00831295018E
:1020F000831603170908C039890003131F129F12A2
:10210000013003178800831203131F179F178316CC
:102110009F1783121F140030F8001F08C33978047A
:102120009F000A12E1280A16203003178D000030A4
:102130008F000A1203137B210A16F601F501703095
:10214000F4008330F30008308316BC00AC30BB00D1
:102150003A30BA008130B9007608C0007508BF0077
:102160007408BE007308BD000A128312EF210A161C
:102170007A08FE007908FD007808FC007708FB006B
:102180008316C101C001BF018030BE007E08C500BA
:102190007D08C4007C08C3007B08C2000A128312B9
:1021A000BB220A167A088316A3007908A2007808D1
:1021B000A1007708A0007E08C1007D08C0007C084F
:1021C000BF007B08BE007E08C5007D08C4007C08F7
:1021D000C3007B08C2000A128312BB220A167A08C7
:1021E0008316A7007908A6007808A5007708A40040
:1021F0002308C1002208C0002108BF002008BE003B
:1022000083126E088316C50083126D088316C400FE
:1022100083126C088316C30083126B088316C200F6
:102220000A128312BB220A167A088316B0007908B4
:10223000AF007808AE007708AD0083143008B8000E
:102240002F08B7002E08B6002D08B500BC01BB0151
:10225000BA017F30B9000A12831232230A167A08B3
:102260008316B0007908AF007808AE007708AD009B
:102270003008BC002F08BB002E08BA002D08B9009A
:1022800083126A088316C000831269088316BF0090
:10229000831268088316BE00831267088316BD0088
:1022A0000A128312EF210A167A08D2007908D100A7
:1022B0007808D0007708CF006A088316C10083121F
:1022C00069088316C000831268088316BF00831252
:1022D00067088316BE00831252088316C500831256
:1022E00051088316C400831250088316C30083125A
:1022F0004F088316C2000A128312BB220A167A08FC
:102300008316B0007908AF007808AE007708AD00FA
:102310002708C1002608C0002508BF002408BE0009
:1023200083126E088316C50083126D088316C400DD
:1023300083126C088316C30083126B088316C200D5
:102340000A128312BB220A1683163008BC002F081B
:10235000BB002E08BA002D08B9007A08C000790821
:10236000BF007808BE007708BD000A128312EF2173
:102370000A167A08D6007908D5007808D4007708BC
:10238000D3008316C101C001BF018030BE0083129B
:1023900056088316C500831255088316C40083129D
:1023A00054088316C300831253088316C2000A120E
:1023B0008312BB220A164E088316BC0083124D08F6
:1023C0008316BB0083124C088316BA0083124B0895
:1023D0008316B9007A08C0007908BF007808BE00EB
:1023E0007708BD000A128312EF210A1683108316A4
:1023F000B801B701B6017F30B5007A08BC00790892
:10240000BB007808BA007708B9000A128312322399
:102410000A167A088316B0007908AF007808AE0073
:102420007708AD0083125A088316BC00831259083E
:102430008316BB00831258088316BA00831257080C
:102440008316B90083124E088316C00083124D080C
:102450008316BF0083124C088316BE0083124B08FC
:102460008316BD000A128312EF210A168310831609
:102470003008B8002F08B7002E08B6002D08B500A8
:102480007A08BC007908BB007808BA007708B90060
:102490000A12831232230A1652088316C1008312CD
:1024A00051088316C000831250088316BF008312A0
:1024B0004F088316BE007A08C5007908C400780862
:1024C000C3007708C2000A128312BB220A167A08D8
:1024D000DE007908DD007808DC007708DB004F08B3
:1024E0008316AD0083125008803A8316AE00831223
:1024F00051088316AF00831252088316B000C10141
:10250000C001BF018030BE00831256088316C5008B
:10251000831255088316C400831254088316C3001F
:10252000831253088316C2000A128312BB220A16B2
:102530004E088316BC0083124D088316BB0083121D
:102540004C088316BA0083124B088316B9007A0828
:10255000C0007908BF007808BE007708BD000A12E5
:102560008312EF210A1683148316B801B701B6014E
:102570007F30B5007A08BC007908BB007808BA0043
:102580007708B9000A12831232230A167A088316D2
:10259000B4007908B3007808B2007708B100C1012F
:1025A000C001BF018030BE0083125A088316C500E7
:1025B000831259088316C400831258088316C30077
:1025C000831257088316C2000A128312BB220A160E
:1025D0007A088316B8007908B7007808B60077083B
:1025E000B5003808BC003708BB003608BA0035080B
:1025F000B90083124E088316C00083124D0883165B
:10260000BF0083124C088316BE0083124B0883164A
:10261000BD000A128312EF210A16831083163408B4
:10262000B8003308B7003208B6003108B5007A08A0
:10263000BC007908BB007808BA007708B9000A1214
:10264000831232230A1683163008C1002F08C000F7
:102650002E08BF002D08BE007A08C5007908C40006
:102660007808C3007708C2000A128312BB220A1638
:102670007A08E2007908E1007808E0007708DF00D6
:1026800052088316C100831251088316C0008312BA
:1026900050088316BF0083124F088316BE008312B2
:1026A0005A088316C500831259088316C400831282
:1026B00058088316C300831257088316C2000A12F3
:1026C0008312BB220A167A088316B0007908AF007D
:1026D0007808AE007708AD003008BC002F08BB00BA
:1026E0002E08BA002D08B90083124E088316C000C8
:1026F00083124D088316BF0083124C088316BE0058
:1027000083124B088316BD000A128312EF210A16AA
:102710007A08E6007908E5007808E4007708E30025
:102720009F149F18912B83161E088312AB001E085E
:10273000AC002C088316AE0083122B088316AD0064
:102740000A12831278240A167A088316C1007908BF
:10275000C0007808BF007708BE00C5014030C40043
:102760001C30C3008B30C2000A128312BB220A162F
:102770007A088316B0007908AF007808AE007708B1
:10278000AD003008BC002F08BB002E08BA002D0891
:10279000B900C001BF01BE018930BD000A12831219
:1027A000EF210A167A08B6007908B5007808B40057
:1027B0007708B3000A12D82C0A161C308316BF0003
:1027C0000A12831274200A1602308316BF000130E9
:1027D000C0000A1283121B210A16213003178D0034
:1027E00000308F000A1203137B210A160130831672
:1027F000BF000230C0000A1283121B210A163208E1
:102800008316BC00831231088316BB008312300884
:102810008316BA0083122F088316B900C001BF01C6
:102820002030BE008230BD000A128312EF210A164A
:102830007A088316B0007908AF007808AE007708F0
:10284000AD002A30831203178D0000308F00031073
:102850000D3083160313B1000A12831286260A165E
:102860000230840083163008B4002F08B3002E080D
:10287000B2002D08B1000130B5000A128A1583128A
:1028800000200A168A11333003178D0000308F00A4
:102890000310053083160313B1000A128312862633
:1028A0000A1601308316BF000330C0000A128312DB
:1028B0001B210A1636088316BC00831235088316BE
:1028C000BB00831234088316BA00831233088316C0
:1028D000B900C001BF012030BE008230BD000A1225
:1028E0008312EF210A167A088316B0007908AF0028
:1028F0007808AE007708AD003630831203178D00DC
:1029000000308F0003100D3083160313B1000A123C
:10291000831286260A160230840083163008B4001B
:102920002F08B3002E08B2002D08B1000130B50009
:102930000A128A15831200200A168A112030831683
:10294000BE000A12831246210A1643308316BE00C7
:102950000A12831246210A1601308316BF00043082
:10296000C0000A1283121B210A16413003178D0082
:1029700000308F0003100D3083160313B1000A12CC
:10298000831286260A16103084002E088316AE00A5
:1029900083122D088316AD000A128312512F0A16D6
:1029A00020308316BE000A12831246210A162030F8
:1029B0008316BE000A12831246210A16203083169F
:1029C000BE000A12831246210A160A128A158129AC
:1029D0000A168A1178088316A8002808443C031DAB
:1029E000F82D0130BF000230C0000A1283121B21F3
:1029F0000A164B3003178D0000308F000A120313A4
:102A00007B210A1601308316BF000330C0000A1272
:102A100083121B210A16553003178D0000308F00DA
:102A20000A1203137B210A1601308316BF000430FB
:102A3000C0000A1283121B210A165C3003178D0096
:102A400000308F000A1203137B210A16033083160D
:102A5000AD000A128A158312A7290A168A1179086D
:102A60008316AE007808AD000A12831278240A1685
:102A70007A08B2007908B1007808B0007708AF0092
:102A80008316B001AF011630AE008730AD0083125F
:102A900032088316B400831231088316B300831200
:102AA00030088316B20083122F088316B1000A1271
:102AB000831297240A16031C652D8A30F7003B30D9
:102AC000F8008030F900FA017E2D32088316C1002B
:102AD000831231088316C000831230088316BF00AA
:102AE00083122F088316BE00C501C4012030C30025
:102AF0008230C2000A128312BB220A167A08B20080
:102B00007908B1007808B0007708AF00013083166B
:102B1000BF000430C0000A1283121B210A163208BB
:102B20008316BC00831231088316BB008312300861
:102B30008316BA0083122F088316B900C001BF01A3
:102B40002030BE008230BD000A128312EF210A1627
:102B50007A088316B0007908AF007808AE007708CD
:102B6000AD006930831203178D0000308F00031011
:102B7000043083160313B1000A12831286260A1644
:102B80000230840083163008B4002F08B3002E08EA
:102B9000B2002D08B1000130B5000A128A15831267
:102BA00000200A168A116D3003178D0000308F0047
:102BB0000314093083160313B1000A128312862608
:102BC0000A1608308316AD00FA30BF000A128312CD
:102BD00074200A168316AD0BE42D7330831203178D
:102BE0008D0000308F000A1203137B210A16831612
:062BF0008312902B63002C
:04400E00E12CFF3F63
:00000001FF
;PIC16F887
;CRC=C517  CREATED="04-May-20 21:42"
