:1000000009308A0002290000FF00030E8301A100CD
:100010000A08A0008A010408A2007708A300780853
:10002000A4007908A5007A08A60003170D08031399
:10003000A70003170F080313A80003170C080313E6
:10004000A90003170E080313AA00831383128B1E43
:100050002B280B194C28220884002308F7002408B9
:10006000F8002508F9002608FA00270803178D0074
:100070000313280803178F000313290803178C00A4
:1000800003132A0803178E00031320088A00210E89
:100090008300FF0E7F0E09008A110A1257280A10EA
:1000A0008A100A11820728340C3401340634AC0358
:1000B000F6308100AC08031D60282730AC00AD0A83
:1000C0000B118A110A122B280C00D4326D383A1009
:1000D00025330000D3327428EF346E3A3A102519D4
:1000E0002E1966104310201000014539F237721D99
:1000F000A01232173233A021201020007514EC32E8
:100100007910C337EE143A10253664102010000021
:10011000C03084008313000803199C280130F800C4
:10012000F701F70B9128F80B90284A30F700F70BEE
:1001300097289A28800B8E2808008316460EF039DF
:10014000F7000F30831206057704860000000614BE
:10015000A928061008008610F03083168600831246
:1001600006150000061400000608060E0F39831657
:10017000C600831206100000061400000608060ED2
:100180000F398316C50083120610003083168600CF
:10019000460EF700F030F70577084504F8007808B8
:1001A000C500C51FD5288312AC284318DA2883124E
:1001B00086108316431CDF288312861483160000E2
:1001C00083120611000006108316440EC5000F307E
:1001D000C5054508C60083129D20831644080F39C3
:1001E000C500C60083129D200800003083168600DB
:1001F00083128610061106100F308316C00083127A
:10020000882001308316AE002E08033C031C1429FD
:100210000330C60083129D2005308316C000831270
:1002200088208316AE0A04290230C60083129D205E
:100230008316AE012E08033C031C2B292E088312C3
:100240004F208316AF00C3012F08C4008312AB20D8
:100250008316AE0A1A2983128A150A1299290130C7
:1002600083164102FC3E03184929043E8312522999
:1002700080308316C2004929C0308316C200492944
:1002800094308316C2004929D4308316C20049290C
:10029000831601304002C207C3014208C400831222
:1002A000AB2008000A148A100A11820738293C2959
:1002B0004029442983163F080C3A83120319672901
:1002C000063A03197529023A0319802987298316EA
:1002D000C3010130C4008312AB200130AB000230F7
:1002E0008316C000831288208E29AB0A0130831642
:1002F000C00083122B088316C10083122F218E2980
:100300008316C3011030C4008312AB208E29013044
:100310008316C3003F08C4008312AB2008000B08FB
:100320008316AE0083128B13831603178C170C14DD
:10033000000000000313AE1FA02983128B17831641
:10034000831203170C087F390319012A831603133C
:10035000AE00831203170D0883160313AF00831238
:1003600003170F0883160313B0002E08BF00831273
:100370005A2183162F08831203178D008316031347
:100380003008831203178F0003130B088316B10084
:1003900083128B13831603178C170C1400000000B4
:1003A0000313B11FD62983128B17831683120317E9
:1003B0000C0D0E0D7F390319012A83160313AE00AD
:1003C000831203170D0883160313AF00831203175C
:1003D0000F0883160313B0002E08BF0083125A21A2
:1003E00083162F08831203178D008316031330081A
:1003F000831203178F008D0A03198F0A03138F29A5
:10040000031703138A150A12A22983163A0803193F
:10041000CB2AC6003E080319CB2AC602031C152AA4
:100420007F30C6070318CB2A1B2A8130C602031C63
:10043000CB2A0319CB2A4608F700F801F901FA0183
:10044000C5013B08C400C4173C08C3003D08C200F6
:100450001930C6004108C20203183E2A0130C30207
:1004600003183E2AC40203183E2AC50203183E2A76
:10047000C50AC40AC30A4108C207702A4008C30259
:100480000318592A0130C4020318592AC502031857
:10049000592AC50AC40A4008C3074108C207031CF9
:1004A000702AC30A031D702AC40A031D702AC50AD4
:1004B000702A3F088038C40203186F2A0130C50231
:1004C00003186F2AC50A3F088038C4074008C307CD
:1004D000031C4D2AC40A031D4D2AC50A4D2A7A144D
:1004E000C60B732A7E2A0310C20DC30DC40DC50DA1
:1004F0000310FA0DF90DF80DC70D2A2A471C862A9C
:100500000310F80CF90CFA0CC70C892AF70303192D
:10051000CB2AC71BB22A0310C20DC30DC40DC50DD3
:100520004108C20203189E2A0130C30203189E2A02
:10053000C40203189E2AC502031CC12A4008C30234
:100540000318A92A0130C4020318A92AC502031CF2
:10055000C12A3F088038C4020318B22A0130C502FC
:10056000031CC12AFA0A031DC12AF90A031DC12A64
:10057000F80A031DC12AF70A0319CB2AF80CF90C53
:10058000FA0C3B08C6003F08C606C61FC92AF81762
:10059000CF2AF813CF2AF701F801F901FA018312E3
:1005A00008008030831CD72A8316BB06831283166B
:1005B000C001C1013708BF003B08BF063608031958
:1005C000C52BBE00F7003A080319CE2BBE02031953
:1005D0006A2B031C282B3B08C400C4173C08C3002B
:1005E0003D08C200C1010310C40CC30CC20CC10CF5
:1005F000BE0BF22ABF1FFF2A4014E22B40103E1010
:100600004016B93084008313F72B4012BF1B122B06
:100610003E1C1D2BC40CC30CC20CC10CF70A0319E1
:10062000DD2B1D2BC41B202B0310C10DC20DC30DD0
:10063000C40DF7030319DD2B122B40178A2B40132F
:100640003708BF00BF1F262BC417D62BC413D62BC9
:100650003A08BE00F7003608BE023708C400C417C7
:100660003808C3003908C200C1010310C40CC30C10
:10067000C20CC10CBE0B342BBF1F412BC014E22B8C
:10068000C0103E10C016BD3084008313F72BC0127B
:10069000BF1B542B3E1C5F2BC40CC30CC20CC10CE3
:1006A000F70A0319DD2B5F2BC41B622B0310C10D4E
:1006B000C20DC30DC40DF7030319DD2B542BC01756
:1006C0008A2BC0133B08BF00BF1F682BC417D62B53
:1006D000C413D62B3B08C400C4173C08C3003D0814
:1006E000C200BF1F772BC4134015E22B4011C1017C
:1006F0003E10B93084008313F72BBF1BA02B3708A3
:10070000BF003E1C8A2BC40CC30CC20CC10CF70AE0
:100710000319DD2BC11F9B2BC20A031D9B2BC30A90
:10072000031D9B2BC40A031D9B2BC40CC30CC20CC2
:10073000F70A0319DD2B401B1F2BC01B612BBF2B9E
:100740008030C406C41FA82BE22B3B08BF00B52B8A
:100750003708BF00C408031DB52BC308031DB52B04
:10076000C208031DB52BF701D62BC41BBF2B0310EA
:10077000C10DC20DC30DC40DF70BB52BDD2BBF1F73
:10078000C32BC417D62BC413D62B3A08F7003B084B
:10079000C4003C08C3003D08C200D62B3608F70051
:1007A0003708C4003808C3003908C2004408F800FC
:1007B0004308F9004208FA00152CF701F801F90185
:1007C000FA01152CC101C209C309C409C109C10A32
:1007D000031DF02BC20A031DF02BC30A0319C40A20
:1007E0004018FE2AC018402B4019762BA52B000874
:1007F000C207031C012CC30A031D012CC40A0319E0
:100800003E1484030008C307031C092CC40A0319FF
:100810003E1484030008801F803AC40703183E1466
:10082000401A052BC01A472B7D2B83120800831614
:100830003F080319882CC70043080319882CC707F1
:100840000318292C7F30C702031C882C0319882C1D
:100850002D2C8130C7070318882C4708F700F801B2
:10086000F901FA014008CB00CB174108CA00420841
:10087000C9001830C700C801491C562C4608FA07A1
:10088000031C482CF90A031D482CF80A0319C81741
:100890004508F907031C4F2CF80A0319C817440828
:1008A000C100C1174108F8070318C817C80DF80C94
:1008B000F90CFA0CCB0CCA0CC90C0310C70B3B2C5F
:1008C0000130F7070318882CF81B6D2CCB0DFA0D9F
:1008D000F90DF80DF7030319882CCB1F7E2CFA0AAB
:1008E000031D7E2CF90A031D7E2CF80A031D7E2CA5
:1008F000F80CF90CFA0CF70A0319882C4008C80008
:100900004408C806C81F862CF8178C2CF8138C2CAA
:10091000F701F801F901FA01831208008E30F7009F
:1009200083162F08F8002E08F900FA01F808031DB5
:10093000A32C7908F800F9010830F702F808031D24
:10094000A32CF701AB2C0310F81BAA2CF90DF80D02
:10095000F703A32CF81383128A150A12A72C831607
:100960002F08B6003308B606B61FBB2C03110310C0
:10097000AF1B0314EE2C2F08B6003208B7002E0868
:10098000B7020319C92CB61FEE2C0308013A8300E5
:10099000EE2C3308B7002F08B7020319D52CB61F69
:1009A000EE2C0308013A8300EE2C3408B70030081F
:1009B000B7020319E12CB61FEE2C0308013A83009D
:1009C000EE2C3508B7003108B7020319ED2CB61F1D
:1009D000EE2C0308013A8300EE2C0310831208006A
:1009E000AD0183160810013083128806831439087C
:1009F0008316B900831238088316B80083123708AB
:100A00008316B700831236088316B60083123508A2
:100A10008316BD00831234088316BC00831233088A
:100A20008316BB00831232088316BA008312D122C8
:100A30007A08BD007908BC007808BB007708BA00C6
:100A40005D088316C20083125C088316C1008312FE
:100A50005B088316C00083125A088316BF008312F6
:100A60003D088316C60083123C088316C500831216
:100A70003B088316C40083123A088316C30083120E
:100A8000172483104D088316B90083124C0883166F
:100A9000B80083124B088316B70083124A088316E6
:100AA000B6007A08BD007908BC007808BB0077085A
:100AB000BA008312D1227A088316B1007908B000F7
:100AC0007808AF007708AE00831261088316C20071
:100AD000831260088316C10083125F088316C0006A
:100AE00083125E088316BF00831241088316C60076
:100AF000831240088316C50083123F088316C40082
:100B000083123E088316C3008312172483108316B2
:100B10003108B9003008B8002F08B7002E08B60019
:100B20007A08BD007908BC007808BB007708BA00D5
:100B30008312D1227A088316B1007908B0007808B0
:100B4000AF007708AE00831265088316C2008312D7
:100B500064088316C100831263088316C0008312E1
:100B600062088316BF00831245088316C6008312ED
:100B700044088316C500831243088316C4008312F9
:100B800042088316C300831217248310831631088A
:100B9000B9003008B8002F08B7002E08B6007A0850
:100BA000BD007908BC007808BB007708BA00831242
:100BB000D1227A08C9007908C8007808C7007708E8
:100BC000C6008316B1014030B0001C30AF008B303E
:100BD000AE00831249088316B500831248088316B5
:100BE000B400831247088316B300831246088316A5
:100BF000B2008312AF240318FF2D031D062EC90176
:100C00004030C8001C30C7008B30C600490883162E
:100C1000B100831248088316B00083124708831678
:100C2000AF00831246088316AE00B501B401B301CC
:100C3000B2018312AF2403181F2E031D232EC901F6
:100C4000C801C701C60149088316BD0083124808C0
:100C50008316BC00831247088316BB008312460824
:100C60008316BA00C101C0012030BF008130BE0030
:100C7000831205227A088316B1007908B00078083B
:100C8000AF007708AE008E30F7002E08F7022F086D
:100C9000F9003008F800F917F70803195A2E031065
:100CA000F908031D562EF80803195A2EF90CF80CF2
:100CB000F70B4F2EAF1F612EF809F909F80A031937
:100CC000F90A79088312B1007808B0004108C5001C
:100CD0004008C4003F08C3003E08C2003D08C100F0
:100CE0003C08C0003B08BF003A08BE004908CD00E0
:100CF0004808CC004708CB004608CA003108F90074
:100D00003008F800F90CF80CF90CF80CF90C78081C
:100D10009500F90C790C3039F7001708CF397704B2
:100D200097008A150A12E22C0B088316B30083126F
:100D30008B13831603178C170C1400000000031389
:100D4000B31FA52E83128B1783160318DE2E831272
:100D500003170C087F3983160313B300831203179C
:100D60000D0883160313B400831203170F088316AC
:100D70000313B5003308BF0083125A2183163408C9
:100D8000831203178D00831603133508831203178C
:100D90008F0003130B088316B60083128B13831680
:100DA00003178C170C14000000000313B61FDB2E72
:100DB00083128B178316B20BDE2E0C2F83120317B0
:100DC0000C0D0E0D7F3983160313B3008312031726
:100DD0000D0883160313B400831203170F0883163C
:100DE0000313B5003308BF0083125A218316340859
:100DF000831203178D00831603133508831203171C
:100E00008F008D0A03198F0A031083160313B20B88
:100E10000A2F0C2F8312942E831208008318132F8D
:100E2000C73084008313F701F801F901FA01831632
:100E3000C701C801C901CA01460845044404430466
:100E40000319522F2030CB000310BF0DC00DC10D70
:100E5000C20DC70DC80DC90DCA0D46084A02031DB3
:100E60003B2F45084902031D3B2F44084802031D40
:100E70003B2F43084702031C4C2F4308C70244087A
:100E8000031C440FC8024508031C450FC90246084D
:100E9000031C460FCA020314F70DF80DF90DFA0DE5
:100EA000CB0B242F47088000840A48088000840A5E
:100EB00049088000840A4A088000831208008316CB
:100EC000B6010408B5003610831B3614AF1F702F0F
:100ED000B517351EB50AAE09AF09AE0A0319AF0A38
:100EE0002F0EF038B100B107E23EB200323EB4003E
:100EF0002F080F39B207B207B407E93EB300B307B2
:100F0000B3072E0E0F39B307B407B30DB40DB409F0
:100F1000B40D2E080F39B407B10D0730B0000A30F8
:100F2000B407B303031C902FB307B203031C942F21
:100F3000B207B103031C982FB107B003031C9C2F09
:100F4000B03084008313073035053513840335052D
:100F5000031DB12F351A840A351AB12F2030F7003E
:100F6000CE2F8407B4300402031935170008F700A8
:100F7000031DC22F351BC22F351ADE2FB519C22F04
:100F80002030CD2FB51FCA2F2D30F7008403351325
:100F9000B513CE2FB51535123030F707AF01040861
:100FA000AE002F10831B2F147708BF0083125A2125
:100FB00083162E08840083132F188317840A351F85
:0A0FC000B22F83128A150A12FC2DCD
:1010000004088316B7003608B900031924283508E8
:10101000C2003408C1003308C0003208BF00C60156
:10102000C5012030C4008230C3008A118312172406
:101030008A157A088316B5007908B4007808B300D9
:101040007708B200B90B07283508C2003408C10080
:101050003308C0003208BF003F08B63CBF00FA01A9
:101060004008C300C0170310C00CC10CC20CFA0C1E
:10107000F90CF80CF70CBF0B3328C31F4A28F709EB
:10108000F809F909FA09F70A0319F80A0319F90A1C
:101090000319FA0A7A08B5007908B4007808B30091
:1010A0007708B200B51F6128B703B716B209B309B4
:1010B000B409B509B20A0319B30A0319B40A03192A
:1010C000B50A3B30BE009A30BD00CA30BC00BB013F
:1010D0000A30B90036080319B70A8314B230840005
:1010E00083133508C2003408C1003308C000320839
:1010F000BF003E08C6003D08C5003C08C4003B08D0
:10110000C3008A1183120E278A157808F708031D79
:10111000A0288316360A3902031D90288312A028BE
:1011200037080319A3280F3939020319992803181E
:10113000E328B71BE328371BA3282030DB288312C2
:1011400020308316B705B71EB528B7123608031D21
:10115000B7037708B7002D30BF008A1183125A21D8
:101160008A1583163708F700B70136083902031DC0
:10117000C7287708B7002E30BF008A1183125A2182
:101180008A1583163708F7002030B7050030303055
:10119000B71EDB28B7123608031DB7037708B70060
:1011A0002D30BF008A1183125A218A158316370801
:1011B000F700B7013030F7077708BF008A118312B4
:1011C0005A218A15831683103E08C2003D08C100CB
:1011D0003C08C0003B08BF00C601C501C4010A307D
:1011E000C3008A1183120E278A157A088316BE005F
:1011F0007908BD007808BC007708BB00B90B6D28E2
:101200008312080003081F3983002730AC00AD01AA
:10121000B101B001B501B401B301B201B90180302F
:10122000B8003B30B7008930B600BD01BC01BB013E
:10123000BA01C101C001BF01BE01C501C401C301A2
:10124000C201C901C801C701C601CD01CC01CB0152
:10125000CA01CD30E900CC30E8004C30E7007B30EB
:10126000E600C330ED00F530EC000830EB007E30D6
:10127000EA00F101F0012030EF008230EE00F501CC
:10128000F401F3017F30F200FF30F6008316AD0168
:10129000AC0103170908C039890003131F129F12FC
:1012A00000300317880083128701880189018313A6
:1012B0000030831603138700F6008800F800053815
:1012C00083129200F9308316920076117608870017
:1012D000831207110C30970083169B019C0101308B
:1012E0009D0083129501831603170908C0398900F0
:1012F00003131F129F120130031788008312031378
:101300001F179F1783169F1783121F140030F800B2
:101310001F08C33978049F00F63081008316010846
:10132000C0390738810083128B16C0308B048A11B4
:10133000F5288A15643003178D0000308F008A115C
:1013400003138F298A15FE01FD017030FC008330E4
:10135000FB0008308316BD00AC30BC003A30BB0047
:101360008130BA007E08C1007D08C0007C08BF0043
:101370007B08BE008A11831205228A157A0883161B
:10138000A3007908A2007808A1007708A0008310C4
:101390002308B9002208B8002108B7002008B600C9
:1013A0002308BD002208BC002108BB002008BA00A9
:1013B0008A118312D1228A157A088316A700790828
:1013C000A6007808A5007708A4002308C200220818
:1013D000C1002108C0002008BF002308C600220861
:1013E000C5002108C4002008C3008A1183121724F5
:1013F0008A157A088316AB007908AA007808A90034
:101400007708A8002708C2002608C1002508C000E8
:101410002408BF007108C6007008C50083126F0859
:101420008316C40083126E088316C3008A118312C8
:1014300017248A157A088316B1007908B000780855
:10144000AF007708AE0083143108B9003008B80047
:101450002F08B7002E08B600BD01BC01BB017F30CC
:10146000BA008A118312D1228A157A088316B10034
:101470007908B0007808AF007708AE003108BD00E9
:101480003008BC002F08BB002E08BA0083126D087C
:101490008316C10083126C088316C00083126B0888
:1014A0008316BF0083126A088316BE008A11831256
:1014B00005228A157A08D1007908D0007808CF0073
:1014C0007708CE006D088316C20083126C0883165D
:1014D000C10083126B088316C00083126A0883164A
:1014E000BF00831251088316C6008312500883166A
:1014F000C50083124F088316C40083124E0883165A
:10150000C3008A11831217248A157A088316B10042
:101510007908B0007808AF007708AE002B08C20049
:101520002A08C1002908C0002808BF007108C600A9
:101530007008C50083126F088316C40083126E08FA
:101540008316C3008A11831217248A158316310863
:10155000BD003008BC002F08BB002E08BA007A0876
:10156000C1007908C0007808BF007708BE008A1162
:10157000831205228A157A08D5007908D4007808E4
:10158000D3007708D2008316C201C101C0018030A8
:10159000BF00831255088316C600831254088316B1
:1015A000C500831253088316C400831252088316A1
:1015B000C3008A11831217248A1569088316BD0097
:1015C000831268088316BC00831267088316BB0069
:1015D000831266088316BA007A08C1007908C00031
:1015E0007808BF007708BE008A11831205228A1589
:1015F00083108316B901B801B7017F30B6007A08AD
:10160000BD007908BC007808BB007708BA008A11D1
:101610008312D1228A157A088316B1007908B000A6
:101620007808AF007708AE00831259088316BD0012
:10163000831258088316BC00831257088316BB0018
:10164000831256088316BA00831269088316C100F4
:10165000831268088316C000831267088316BF00D0
:10166000831266088316BE008A11831205228A152A
:10167000831083163108B9003008B8002F08B7006E
:101680002E08B6007A08BD007908BC007808BB00B7
:101690007708BA008A118312D1228A15510883165D
:1016A000C200831250088316C10083124F088316AC
:1016B000C00083124E088316BF007A08C60079085E
:1016C000C5007808C4007708C3008A118312172464
:1016D0008A157A08DD007908DC007808DB007708D5
:1016E000DA004E088316AE0083124F08803A831644
:1016F000AF00831250088316B0008312510883167E
:10170000B100C201C101C0018030BF008312550881
:101710008316C600831254088316C500831253082B
:101720008316C400831252088316C3008A118312E1
:1017300017248A1569088316BD008312680883166A
:10174000BC00831267088316BB00831266088316E9
:10175000BA007A08C1007908C0007808BF0077088D
:10176000BE008A11831205228A1583148316B901DB
:10177000B801B7017F30B6007A08BD007908BC0017
:101780007808BB007708BA008A118312D1228A1523
:101790007A088316B5007908B4007808B300770892
:1017A000B200C201C101C0018030BF0083125908DC
:1017B0008316C600831258088316C5008312570883
:1017C0008316C400831256088316C3008A1183123D
:1017D00017248A157A088316B9007908B8007808A2
:1017E000B7007708B6003908BD003808BC003708D4
:1017F000BB003608BA00831269088316C100831241
:1018000068088316C000831267088316BF0083121E
:1018100066088316BE008A11831205228A1583107A
:1018200083163508B9003408B8003308B700320809
:10183000B6007A08BD007908BC007808BB007708BC
:10184000BA008A118312D1228A1583163108C20088
:101850003008C1002F08C0002E08BF007A08C6005B
:101860007908C5007808C4007708C3008A1183127C
:1018700017248A157A08E1007908E0007808DF006B
:101880007708DE0051088316C200831250088316C1
:10189000C10083124F088316C00083124E088316BE
:1018A000BF00831259088316C60083125808831696
:1018B000C500831257088316C40083125608831686
:1018C000C3008A11831217248A157A088316B1007F
:1018D0007908B0007808AF007708AE003108BD0085
:1018E0003008BC002F08BB002E08BA00831269081C
:1018F0008316C100831268088316C000831267082C
:101900008316BF00831266088316BE008A118312F5
:1019100005228A157A08E5007908E4007808E300D2
:101920007708E2009F149F18932C83161E088312D9
:10193000AE001E08AF009C2C9D2C2F088316AF0014
:1019400083122E088316AE008A1183128E2C8A15FC
:101950007A088316C2007908C1007808C0007708A9
:10196000BF00C6014030C5001C30C4008B30C3002E
:101970008A11831217248A157A088316B100790810
:10198000B0007808AF007708AE003108BD0030081D
:10199000BC002F08BB002E08BA00C101C001BF0166
:1019A0008930BE008A11831205228A157A08B50093
:1019B0007908B4007808B3007708B2002D0BE32C47
:1019C0008A11F02C8A1501308316C000C1008A11DB
:1019D00083122F218A1535088316BD00831234081F
:1019E0008316BC00831233088316BB0083123208AF
:1019F0008316BA00C101C0012030BF008230BE0092
:101A00008A11831205228A157A088316B100790893
:101A1000B0007808AF007708AE0065308312031776
:101A20008D0000308F000310063083160313B200C0
:101A30008A11831294268A1589308400831631080E
:101A4000B5003008B4002F08B3002E08B2000230F1
:101A5000B6008312002001308316C0000230C1009E
:101A60008A1183122F218A1539088316BD0083122B
:101A700038088316BC00831237088316BB00831214
:101A800036088316BA00C101C0012030BF00823081
:101A9000BE008A11831205228A157A088316B100C6
:101AA0007908B0007808AF007708AE006A3083127A
:101AB00003178D0000308F0003100A3083160313C4
:101AC000B2008A11831294268A1589308400831605
:101AD0003108B5003008B4002F08B3002E08B2005A
:101AE0000230B60083120020713003178D000030E1
:101AF0008F000314053083160313B2008A1183127A
:101B000094268A1501308316C0000330C1008A1163
:101B100083122F218A153D088316BD0083123C08CD
:101B20008316BC0083123B088316BB0083123A085D
:101B30008316BA00C101C0012030BF008230BE0050
:101B40008A11831205228A157A088316B100790852
:101B5000B0007808AF007708AE0075308312031725
:101B60008D0000308F000310073083160313B2007E
:101B70008A11831294268A158930840083163108CD
:101B8000B5003008B4002F08B3002E08B2000230B0
:101B9000B600831200207B3003178D0000308F00C9
:101BA0000310053083160313B2008A1183129426A2
:101BB0008A1501308316C0000430C1008A118312D7
:101BC0002F218A157E3003178D0000308F000310FF
:101BD0000C3083160313B2008A11831294268A15DF
:101BE0001030840031088316AF008312300883164A
:101BF000AE008A1183125F2F8A1520308316BF0032
:101C00008A1183125A218A1520308316BF008A1147
:101C100083125A218A1520308316BF008A1183123D
:081C20005A218A15922C630081
:04400E00E12CFF3F63
:00000001FF
;PIC16F887
;CRC=A809  CREATED="04-May-20 21:55"
