:1000000000308A00272800000A108A100A1182078F
:100010003F3406345B344F3466346D347D340734FA
:100020007F346734233084008313000803192628A3
:100030000130F800F701F70B1B28F80B1A284A309B
:10004000F700F70B21282428800B18280800030844
:100050001F398300FF30A100831603170908C03938
:10006000890003131F129F120030031788008312A8
:1000700087018801890183130030831603138600EA
:10008000033087008312A100A00120080420F8009B
:1000900086000711071C5A28C830A3001220071831
:1000A0004F28A00A20080420F800860020080A3CF7
:1000B0000319A001871C7128C830A300122007155E
:1000C000A0080319702820080420F80086000430D6
:1000D000A200FA30A3001220A20B6928A003602816
:0600E00007114528630032
:04400E00E12CFF3F63
:00000001FF
;PIC16F887
;CRC=07AC  CREATED="11-Jun-20 19:58"
