:10000000A6EF06F0F76A140FF66E000EF72209004D
:10001000F5501200280C010643616C69627261633D
:10002000696F6E206465000042616C616E7A6100E8
:100030005065736F20436F6E6F6369646F3A0000A1
:1000400025342E30662067202020202020202020EC
:10005000202020200000506F6E676120656C2050CA
:1000600065736F007920657370657265202E2E2E82
:10007000000052657469726520656C205065736F6D
:1000800000007920657370657265202E2E2E0000A9
:100090004C6973746F2E2E2E2E0042616C616E7A45
:1000A0006120434145005065736F3A2025342E315D
:1000B0006620672020202020202000005065736FDC
:1000C0003A2025342E3266204B6720202020202025
:1000D00020005065736F3A2025342E3266206F7AE7
:1000E0002020202020202000EA6A4C0EE96EEF50EC
:1000F0000DE0060E016E006A002EFED7012EFBD722
:100100007B0E006E002EFED7EF2EF3D71200C69E98
:100110009E9657C0C9FF020EC6BE05D09EA6FED74A
:10012000000EC5BC010E016E12005550000A03E01E
:10013000010A24E047D05438006EF00E001600503B
:100140000810566E576EE3DF00005438006EF00E54
:100150000016005004090810566E576ED8DF030EC3
:10016000006E002EFED75438006EF00E00160050C0
:10017000FB0B0810566E576ECADF24D05438006E41
:10018000F00E0016005001090810566E576EBFDFC2
:1001900000005438006EF00E0016005001090409EA
:1001A0000810566E576EB3DF030E006E002EFED79A
:1001B0005438006EF00E0016005001090810566EFB
:1001C000576EA5DF1200C580C5B0FED704C057F03A
:1001D0009EDF5138536E0F0E531653C054F052C069
:1001E00055F0A3DF51500F0B536E546E52C055F0B3
:1001F0009CDFC584C5B4FED71200010E516E526A51
:10020000E2DF020E4C6E70DF010E076E120032C08C
:1002100004F034C005F033C006F0F29CF29EF2BE4A
:10022000FDD7320E4C6E60DFC580C5B0FED704C06E
:1002300057F06DDF546A556A78DF0F0E4C6E54DF4D
:10024000010E356E3550030809E3030E546E556AEE
:100250006CDF050E4C6E48DF352AF4D7020E546E63
:10026000556A63DF050E4C6E3FDFC584C5B4FED70B
:10027000356A355003080CE3036A3550C3DE366E29
:10028000516E526AA0DF050E4C6E2EDF352AF1D773
:10029000B4DFC00EF212FAEF06F0325203E0080E9D
:1002A000086E01D0086AFEEF06F04B6A4A6A496A96
:1002B000486A93968A96640E4C6E16DF938481B4D6
:1002C000FDD7476A4750170815E393968A8600D0F2
:1002D00000D0000093968A9600D000D0000093844E
:1002E00081B402D0D89001D0D880483649364A36F9
:1002F000472AE8D7476A1250475C0CE293968A86F1
:1003000000D000D0000093968A9600D000D0000064
:10031000472AF1D7800E4A1A48C000F049C001F0C0
:100320004AC002F04BC003F012003350800A05E0CF
:10033000C00A06E0600A07E008D0010E126E05D080
:10034000030E126E02D0020E126E93968A96ADDFE5
:10035000B1EF01F093968A9693948A8432C033F079
:10036000E4D702EF07F0346A3450030821E33A6A15
:10037000350E396E34503924016E000E3A20036E6A
:100380000150E96E03C0EAFF345032243B6E000E88
:1003900033203C6EF2CF3DF0F29E3BC0A9FFA69CFD
:1003A000A69EA680A8503DBEF28EEF6E342ADCD702
:1003B00035C000F036C001F037C002F038C003F09D
:1003C00008EF07F04B50055C03E205C04CF002D08B
:1003D0004BC04CF04C50010A07E0030A07E0010A49
:1003E00008E0070A09E00BD04E6A0AD0400E4E6EB4
:1003F00007D0140E4E6E04D0540E4E6E01D04E6ACD
:100400004A50065C03E206C04DF002D04AC04DF0EF
:10041000010E4D5C4E244F6E4F508009506E516E50
:10042000526AD1DE120049500C0A05E0060A05E0C6
:10043000020A0FE013D0E1DE16D0072A0750055C50
:1004400002E2010E076E010E4A6E07C04BF0BADFE2
:100450000AD0100E516E526AB6DE05D049C051F076
:10046000010E526EB0DE12000900F5520CE0F6CF1C
:1004700038F0F7CF39F0F5CF49F0D5DF38C0F6FFC7
:1004800039C0F7FFF1D71200D8B203D0EA6A510E93
:10049000E96E006A016A026A036A516A526A536A23
:1004A000546A50504F104E104D102CE0200E556ED7
:1004B000D89049364A364B364C365136523653363A
:1004C00054365050545C08E14F50535C05E14E5097
:1004D000525C02E14D50515C0FE34D50515E4E5065
:1004E000D8A04E3C525E4F50D8A04F3C535E505067
:1004F000D8A0503C545ED880003601360236033610
:10050000552ED6D751C0EFFF52C0ECFF53C0ECFFC1
:1005100054C0ECFF1200456A446A436A426A466A64
:100520004150465C0BE2C1DE00504226015043229E
:100530000250442203504522462AF2D7D89245C0A1
:100540004CF044C04BF043C04AF042C049F0506AFE
:100550004F6A4E6A41C04DF097DF120040C00DF067
:100560003FC00CF03EC00BF03DC00AF0CCEF02F0F3
:1005700038C041F0D0DF03C03CF002C03BF001C006
:100580003AF000C039F03CC040F03BC03FF03AC008
:100590003EF039C03DF0E2D712004950D8B471D0D6
:1005A000006E4D50D8B46DD0002604E3810E0026B5
:1005B00068E204D07F0E005E64E363E04AC051F05D
:1005C0004E50511A4A8E4E8E4C505002F4CF53F07A
:1005D0004B504F02F4CF03F0F3CF52F05002F350E0
:1005E0005326F4505222000E03224C504F02F35077
:1005F0005326F4505222000E026A032202224A506D
:100600005002F3505226F4500322000E02224A50A8
:100610004F02F3500326F4500222000E016A012219
:100620004C504E02F3505226F4500322000E022288
:1006300001224B504E02F3500326F4500222000ECA
:1006400001224A504E02F3500226F4500122002AA1
:1006500001BE05D052360336023601360006000EC2
:1006600052AE0AD0032A02220122015005E10250B3
:1006700003E1035001E1002A51BE018E51AE019EFB
:1006800004D0006A016A026A036A12004950B6087F
:10069000496E036A4AC04DF04A8ED8904A324B32B6
:1006A0004C320332023201320032492EF6D74DAEBF
:1006B0000BD0001E011E021E031E002AD8B4012A00
:1006C000D8B4022AD8B4032A1200E950416E40502F
:1006D000436E19E03FC04CF03EC04BF03DC04AF0C5
:1006E0003CC049F0506A4F6A200E4E6E820E4D6E2D
:1006F00054DF03C03FF002C03EF001C03DF000C037
:100700003CF0432EE7D73FC04CF03EC04BF03DC01D
:100710004AF03CC049F0BADF03C03FF002C03EF0EF
:1007200001C03DF000C03CF03FAE0DD04106418A13
:100730003C1E3D1E3E1E3F1E3C2AD8B43D2AD8B466
:100740003E2AD8B43F2A3B0E486E9A0E476ECA0E18
:10075000466E456A0A0E436E4050D8B4412AD8828C
:10076000EA6A3C0EE96E3FC04CF03EC04BF03DC023
:100770004AF03CC049F048C050F047C04FF046C076
:100780004EF045C04DF080DE015000520FE1402890
:10079000435C0CE041500CE00F0B435C01E037E29E
:1007A00041BE35D041BC04D0200E2DD0200E4116C4
:1007B00041AA0CD0419A4050D8A441060050416E45
:1007C0002D0E496E30DE4150006E416A4050435C50
:1007D0000AE10050416E2E0E496E25DE4150006E3A
:1007E000200E4116000E300E41AA0DD0419A405005
:1007F000D8A441060050416E2D0E496E14DE4150C2
:10080000006E416A300E002600C049F00CDED8921E
:1008100048C04CF047C04BF046C04AF045C049F0D4
:10082000506A4F6A4E6A0A0E4D6E2EDE03C048F0C3
:1008300002C047F001C046F000C045F0432E8FD7FC
:1008400012000900F6CF3DF0F7CF3EF0F5CF49F0AA
:10085000EADD3DC0F6FF3EC0F7FF3C2EF2D71200A6
:10086000B60E006E036A026A016A415042104310DC
:10087000441002E1006A0DD0D89001BE09D0413683
:10088000423643364436033602360136002EF4D75C
:10089000019E120038C041F03EDE03C040F002C0AD
:1008A0003FF001C03EF000C03DF040500D5C40E321
:1008B0000BE13F500C5C3CE307E13E500B5C38E33E
:1008C00003E13D500A5C34E33D500A5C006E3E504B
:1008D0000B58016E3F500C58026E40500D58036E7D
:1008E000446E02C043F001C042F000C041F0B8DFE6
:1008F00003C03CF002C03BF001C03AF000C039F048
:100900004C6A4B6A800E4A6E7F0E496E3CC050F0B6
:100910003BC04FF03AC04EF039C04DF03EDE03C050
:100920003CF002C03BF001C03AF000C039F01CD0EE
:100930000A503D5C006E0B503E58016E0C503F5803
:10094000026E0D504058036E446E02C043F001C069
:1009500042F000C041F084DF03C03CF002C03BF035
:1009600001C03AF000C039F039C000F03AC001F0DF
:100970003BC002F03CC003F012003C50D8B4A5D0FC
:10098000486E4050D8B4A1D0485E05E37F0E48269B
:10099000D8B09BD006D0810E485ED8A096D0D8B4EF
:1009A00094D048C000F0016A026A036A476A3DC0F9
:1009B00046F0468E3EC045F03FC044F0190E486EEA
:1009C0004350445E0DE2010E455E0AE2465E08E2D7
:1009D000475E06E2472A462A452A4350442628D045
:1009E0004250455E12E2010E465E0FE2475E0DE2A6
:1009F000472A462A425045264350442619E3452AB1
:100A000017E1462A15E1472A13D041508009465E76
:100A10000EE2010E475E0BE2472A4150800946264E
:100A200042504526E9E3462AE7E1472AE5D7038015
:100A3000482E01D00BD0D89044364536463647363E
:100A4000D8900336023601364936BAD749A006D0C7
:100A5000D890013202320332493202D0000635E02A
:100A600049BE1ED0D89044364536463647364350A8
:100A7000445E07E2010E455E04E2465E02E2475E26
:100A80001AE34250455E05E2010E465E02E2475E11
:100A900012E341508009465E03E2010E475E0BE31C
:100AA000032A09E1022A07E1012A05E1002A0DE0F3
:100AB0000132023203323DC048F04150481A48AE7C
:100AC00002D0018E06D0019E04D0006A016A026A3B
:100AD000036A12003E6A3E5003082DE33E5038245C
:100AE0003F6E000E3920406E426A3A0E416E3E5013
:100AF0004124016E000E4220036E0150E96E03C0D6
:100B0000EAFFEFCF41F0F250006EF29E3FC0A9FF26
:100B100041C0A8FFA69CA69EA6840F01550EA76EF5
:100B2000AA0EA76EA682A6B2FED7A6940050F21215
:100B30003E2A0001D0D774EF06F0326A010E336E00
:100B4000020E4A6E010E4B6E3DDC180EF66E000E64
:100B5000F76E8ADC040E4A6E020E4B6E33DC280EF2
:100B6000F66E000EF76E80DC060E386EFA0E4C6ED6
:100B700074EC00F0382EFAD70A0E386EF9DCFDEC72
:100B800000F0332CB9D0010E4A6E4B6E1BDC300ED8
:100B9000F66E000EF76E68DC010E4A6E020E4B6EAA
:100BA00011DC3250040DF350036A170FE96E000E8A
:100BB0000320EA6EEFCF3CF0ECCF3DF0ECCF3EF0FF
:100BC000ECCF3FF0030EE96E406A7FDD450EF66E16
:100BD000000EF76E0F0E3C6E34DE938A81AA0CD0A5
:100BE000C80E4C6E74EC00F03250020802E2000EA7
:100BF00002D0010E3224326E938881A87CD0C80EB8
:100C00004C6E74EC00F0FDEC00F0010E4A6E4B6E81
:100C1000E2EC01F0560EF66E000EF76E25DC010ECA
:100C20004A6E020E4B6EE2EC01F0640EF66E000EA0
:100C3000F76E1ADC0C0E386EFA0E4C6E74EC00F087
:100C4000382EFAD70A0E386E25DE03C04CF002C0EB
:100C50004BF001C04AF000C049F018DD03C037F086
:100C600002C036F001C035F000C034F03250040D3F
:100C7000F350036A170FE96E000E0320EA6EEFCF00
:100C800038F0ECCF39F0ECCF3AF0ECCF3BF037C096
:100C900044F036C043F035C042F034C041F0E0DDEE
:100CA00003C03FF002C03EF001C03DF000C03CF088
:100CB0003BC043F03AC042F039C041F038C040F088
:100CC0005CDE03C016F002C015F001C014F000C0D5
:100CD00013F0396A386A16C03DF015C03CF014C0F4
:100CE0003BF013C03AF0F6D6640E4C6E74EC00F094
:100CF000336AFDEC00F045D717EF07F035C011F06F
:100D000034C010F033C00FF032C00EF037EF07F0F0
:100D100032C038F0BFDD03C036F002C035F001C08C
:100D200034F000C033F003C03FF002C03EF001C019
:100D30003DF000C03CF011C043F010C042F00FC0C5
:100D400041F00EC040F019DE61EF07F0F86AD09E66
:100D500093829380310EC86E280EC66EC78EC79CD4
:100D6000010E076E080E086E0D6A0C6A0B6A0A6A9D
:100D7000116A106A0F6A7F0E0E6E010E126E166AED
:100D8000156A146A136A286A276AC150C00B0F09D2
:100D9000C16E070EB46E096A880E176E090E186EC2
:100DA000800E196E1A6A880E1B6E7A0E1C6E1D6AF2
:100DB0001E6A8A0E1F6E3B0E206E800E216E226A06
:100DC0008B0E236E1C0E246E400E256E266A2C6A36
:100DD0002B6A2A6A296A306A2F6A2E6A7F0E2D6E64
:100DE000010E316E4E0E326E100E336E020E346EE8
:100DF00007EF01F0010E326E4DEF01F0800E326E02
:100E0000AAEF01F0FDEC00F0336A326AB3EF01F0B3
:100E100003C016F002C015F001C014F000C013F0BA
:100E2000938881A804D0938A81AA01D086D6010E26
:100E30004A6E4B6EE2EC01F0720EF66E000EF76E2B
:100E400034EC02F0010E4A6E020E4B6EE2EC01F041
:100E5000820EF66E000EF76E34EC02F016C035F01E
:100E600015C034F014C033F013C032F047D70A0E67
:100E7000386EB8EC02F0080E326EFA0E4C6E74EC5E
:100E800000F0322EFAD7FDEC00F0010E4A6E4B6EE8
:100E9000E2EC01F0900EF66E000EF76E34EC02F00C
:100EA0000C0E326EFA0E4C6E74EC00F0322EFAD745
:100EB000FDEC00F00A0E386EB8EC02F00A0E326E4D
:100EC00027D703C02CF002C02BF001C02AF000C0CD
:100ED00029F0030E4A6E010E4B6EE2EC01F09A0E01
:100EE000F66E000EF76E34EC02F03150010A06E0A7
:100EF000030A45E0010AD8B484D0C8D0306A2F6A0A
:100F00002E6A7F0E2D6E010E4A6E020E4B6EE2ECC3
:100F100001F02CC03FF02BC03EF02AC03DF029C0AC
:100F20003CF030C043F02FC042F02EC041F02DC045
:100F300040F023DD03C035F002C034F001C033F0CF
:100F400000C032F0A60EF66E000EF76E060E3C6E76
:100F500078DC030EE96E35C03FF034C03EF033C09C
:100F60003DF032C03CF0010E406E65EC03F0B10E76
:100F7000F66E000EF76E090E3C6E63DC87D0306AA9
:100F80002F6A7A0E2E6E880E2D6E010E4A6E020E9C
:100F90004B6EE2EC01F02CC03FF02BC03EF02AC0BB
:100FA0003DF029C03CF030C043F02FC042F02EC0CD
:100FB00041F02DC040F0E1DC03C035F002C034F058
:100FC00001C033F000C032F0BC0EF66E000EF76EBA
:100FD000060E3C6E36DC030EE96E35C03FF034C0C1
:100FE0003EF033C03DF032C03CF0020E406E65EC86
:100FF00003F0C70EF66E000EF76E0A0E3C6E21DC93
:1010000045D0CD0E306ECC0E2F6E620E2E6E830E3E
:101010002D6E010E4A6E020E4B6EE2EC01F02CC0FA
:101020003FF02BC03EF02AC03DF029C03CF030C05C
:1010300043F02FC042F02EC041F02DC040F09DDCA7
:1010400003C035F002C034F001C033F000C032F00C
:10105000D20EF66E000EF76E060E3C6E21EC04F01A
:10106000030EE96E35C03FF034C03EF033C03DF0B2
:1010700032C03CF0020E406E65EC03F0DD0EF66E01
:10108000000EF76E0A0E3C6E21EC04F0938A81AAE2
:1010900008D0C80E4C6E74EC00F00A0E386EB8EC36
:1010A00002F0938881A80CD0C80E4C6E74EC00F04E
:1010B0003150020802E2010E02D0010E3124316EDD
:0C10C000640E4C6E74EC00F0F9D60300D6
:020000040030CA
:0E00000004CC391E0087A1000FC00FE00F4096
:00000001FF
;PIC18F4550
;CRC=A717  CREATED="15-Feb-22 18:37"
